{
  "contractName": "AIModelMarketplace",
  "abi": [
    {
      "inputs": [],
      "stateMutability": "nonpayable",
      "type": "constructor"
    },
    {
      "anonymous": false,
      "inputs": [
        {
          "indexed": false,
          "internalType": "uint256",
          "name": "modelId",
          "type": "uint256"
        },
        {
          "indexed": false,
          "internalType": "string",
          "name": "name",
          "type": "string"
        },
        {
          "indexed": false,
          "internalType": "string",
          "name": "description",
          "type": "string"
        },
        {
          "indexed": false,
          "internalType": "uint256",
          "name": "price",
          "type": "uint256"
        },
        {
          "indexed": false,
          "internalType": "address",
          "name": "creator",
          "type": "address"
        }
      ],
      "name": "ModelListed",
      "type": "event"
    },
    {
      "anonymous": false,
      "inputs": [
        {
          "indexed": false,
          "internalType": "uint256",
          "name": "modelId",
          "type": "uint256"
        },
        {
          "indexed": false,
          "internalType": "address",
          "name": "buyer",
          "type": "address"
        }
      ],
      "name": "ModelPurchased",
      "type": "event"
    },
    {
      "anonymous": false,
      "inputs": [
        {
          "indexed": false,
          "internalType": "uint256",
          "name": "modelId",
          "type": "uint256"
        },
        {
          "indexed": false,
          "internalType": "uint8",
          "name": "rating",
          "type": "uint8"
        },
        {
          "indexed": false,
          "internalType": "address",
          "name": "rater",
          "type": "address"
        }
      ],
      "name": "ModelRated",
      "type": "event"
    },
    {
      "inputs": [],
      "name": "modelCount",
      "outputs": [
        {
          "internalType": "uint256",
          "name": "",
          "type": "uint256"
        }
      ],
      "stateMutability": "view",
      "type": "function",
      "constant": true
    },
    {
      "inputs": [
        {
          "internalType": "uint256",
          "name": "",
          "type": "uint256"
        }
      ],
      "name": "models",
      "outputs": [
        {
          "internalType": "string",
          "name": "name",
          "type": "string"
        },
        {
          "internalType": "string",
          "name": "description",
          "type": "string"
        },
        {
          "internalType": "address payable",
          "name": "creator",
          "type": "address"
        },
        {
          "internalType": "uint256",
          "name": "price",
          "type": "uint256"
        },
        {
          "internalType": "uint256",
          "name": "ratingSum",
          "type": "uint256"
        },
        {
          "internalType": "uint256",
          "name": "ratingCount",
          "type": "uint256"
        }
      ],
      "stateMutability": "view",
      "type": "function",
      "constant": true
    },
    {
      "inputs": [],
      "name": "owner",
      "outputs": [
        {
          "internalType": "address",
          "name": "",
          "type": "address"
        }
      ],
      "stateMutability": "view",
      "type": "function",
      "constant": true
    },
    {
      "inputs": [
        {
          "internalType": "address",
          "name": "",
          "type": "address"
        },
        {
          "internalType": "uint256",
          "name": "",
          "type": "uint256"
        }
      ],
      "name": "purchasedModels",
      "outputs": [
        {
          "internalType": "uint256",
          "name": "",
          "type": "uint256"
        }
      ],
      "stateMutability": "view",
      "type": "function",
      "constant": true
    },
    {
      "inputs": [],
      "name": "totalFunds",
      "outputs": [
        {
          "internalType": "uint256",
          "name": "",
          "type": "uint256"
        }
      ],
      "stateMutability": "view",
      "type": "function",
      "constant": true
    },
    {
      "stateMutability": "payable",
      "type": "receive",
      "payable": true
    },
    {
      "inputs": [
        {
          "internalType": "string",
          "name": "name",
          "type": "string"
        },
        {
          "internalType": "string",
          "name": "description",
          "type": "string"
        },
        {
          "internalType": "uint256",
          "name": "price",
          "type": "uint256"
        }
      ],
      "name": "listModel",
      "outputs": [],
      "stateMutability": "nonpayable",
      "type": "function"
    },
    {
      "inputs": [
        {
          "internalType": "uint256",
          "name": "modelId",
          "type": "uint256"
        }
      ],
      "name": "purchaseModel",
      "outputs": [],
      "stateMutability": "payable",
      "type": "function",
      "payable": true
    },
    {
      "inputs": [
        {
          "internalType": "uint256",
          "name": "modelId",
          "type": "uint256"
        },
        {
          "internalType": "uint8",
          "name": "rating",
          "type": "uint8"
        }
      ],
      "name": "rateModel",
      "outputs": [],
      "stateMutability": "nonpayable",
      "type": "function"
    },
    {
      "inputs": [],
      "name": "withdrawFunds",
      "outputs": [],
      "stateMutability": "nonpayable",
      "type": "function"
    },
    {
      "inputs": [
        {
          "internalType": "uint256",
          "name": "modelId",
          "type": "uint256"
        }
      ],
      "name": "getModelDetails",
      "outputs": [
        {
          "internalType": "string",
          "name": "",
          "type": "string"
        },
        {
          "internalType": "string",
          "name": "",
          "type": "string"
        },
        {
          "internalType": "address",
          "name": "",
          "type": "address"
        },
        {
          "internalType": "uint256",
          "name": "",
          "type": "uint256"
        },
        {
          "internalType": "uint256",
          "name": "",
          "type": "uint256"
        },
        {
          "internalType": "uint256",
          "name": "",
          "type": "uint256"
        }
      ],
      "stateMutability": "view",
      "type": "function",
      "constant": true
    }
  ],
  "bytecode": "0x6080604052600060025534801561001557600080fd5b5033600460006101000a81548173ffffffffffffffffffffffffffffffffffffffff021916908373ffffffffffffffffffffffffffffffffffffffff16021790555061175b806100666000396000f3fe6080604052600436106100955760003560e01c806387d258d21161005957806387d258d21461018e5780638da5cb5b146101cb578063968ed600146101f6578063c6a645fe14610221578063dc7468621461024c5761009c565b806312ee1c0e146100a15780631c788a9a146100ca57806324600fc3146100f357806331fc042f1461010a5780636a030ca91461014c5761009c565b3661009c57005b600080fd5b3480156100ad57600080fd5b506100c860048036038101906100c39190610e7b565b610268565b005b3480156100d657600080fd5b506100f160048036038101906100ec9190610f3f565b610404565b005b3480156100ff57600080fd5b506101086105f7565b005b34801561011657600080fd5b50610131600480360381019061012c9190610f7f565b610719565b60405161014396959493929190611084565b60405180910390f35b34801561015857600080fd5b50610173600480360381019061016e9190610f7f565b61090f565b60405161018596959493929190611114565b60405180910390f35b34801561019a57600080fd5b506101b560048036038101906101b091906111af565b610a7b565b6040516101c291906111ef565b60405180910390f35b3480156101d757600080fd5b506101e0610aac565b6040516101ed919061120a565b60405180910390f35b34801561020257600080fd5b5061020b610ad2565b60405161021891906111ef565b60405180910390f35b34801561022d57600080fd5b50610236610ad8565b60405161024391906111ef565b60405180910390f35b61026660048036038101906102619190610f7f565b610ade565b005b600081116102ab576040517f08c379a00000000000000000000000000000000000000000000000000000000081526004016102a290611271565b60405180910390fd5b6040518060c001604052808481526020018381526020013373ffffffffffffffffffffffffffffffffffffffff16815260200182815260200160008152602001600081525060008060025481526020019081526020016000206000820151816000019080519060200190610320929190610c48565b50602082015181600101908051906020019061033d929190610c48565b5060408201518160020160006101000a81548173ffffffffffffffffffffffffffffffffffffffff021916908373ffffffffffffffffffffffffffffffffffffffff160217905550606082015181600301556080820151816004015560a082015181600501559050507f988447004164f28081936f22661fc3898dda52a0210617c848e707ce976307bb600254848484336040516103df959493929190611291565b60405180910390a1600260008154809291906103fa90611321565b9190505550505050565b60018160ff161015801561041c575060058160ff1611155b61045b576040517f08c379a0000000000000000000000000000000000000000000000000000000008152600401610452906113b5565b60405180910390fd5b6000805b600160003373ffffffffffffffffffffffffffffffffffffffff1673ffffffffffffffffffffffffffffffffffffffff168152602001908152602001600020805490508110156105275783600160003373ffffffffffffffffffffffffffffffffffffffff1673ffffffffffffffffffffffffffffffffffffffff16815260200190815260200160002082815481106104fb576104fa6113d5565b5b9060005260206000200154036105145760019150610527565b808061051f90611321565b91505061045f565b5080610568576040517f08c379a000000000000000000000000000000000000000000000000000000000815260040161055f90611476565b60405180910390fd5b600080600085815260200190815260200160002090508260ff168160040160008282546105959190611496565b925050819055508060050160008154809291906105b190611321565b91905055507f4129c8696bb756892ebbda9c4396a685357b1f8eddd505fee0f194e56f8c9a2b8484336040516105e9939291906114fb565b60405180910390a150505050565b600460009054906101000a900473ffffffffffffffffffffffffffffffffffffffff1673ffffffffffffffffffffffffffffffffffffffff163373ffffffffffffffffffffffffffffffffffffffff1614610687576040517f08c379a000000000000000000000000000000000000000000000000000000000815260040161067e906115a4565b60405180910390fd5b6000479050600081116106cf576040517f08c379a00000000000000000000000000000000000000000000000000000000081526004016106c690611610565b60405180910390fd5b3373ffffffffffffffffffffffffffffffffffffffff166108fc829081150290604051600060405180830381858888f19350505050158015610715573d6000803e3d6000fd5b5050565b60608060008060008060008060008981526020019081526020016000206040518060c00160405290816000820180546107519061165f565b80601f016020809104026020016040519081016040528092919081815260200182805461077d9061165f565b80156107ca5780601f1061079f576101008083540402835291602001916107ca565b820191906000526020600020905b8154815290600101906020018083116107ad57829003601f168201915b505050505081526020016001820180546107e39061165f565b80601f016020809104026020016040519081016040528092919081815260200182805461080f9061165f565b801561085c5780601f106108315761010080835404028352916020019161085c565b820191906000526020600020905b81548152906001019060200180831161083f57829003601f168201915b505050505081526020016002820160009054906101000a900473ffffffffffffffffffffffffffffffffffffffff1673ffffffffffffffffffffffffffffffffffffffff1673ffffffffffffffffffffffffffffffffffffffff16815260200160038201548152602001600482015481526020016005820154815250509050806000015181602001518260400151836060015184608001518560a001519650965096509650965096505091939550919395565b60006020528060005260406000206000915090508060000180546109329061165f565b80601f016020809104026020016040519081016040528092919081815260200182805461095e9061165f565b80156109ab5780601f10610980576101008083540402835291602001916109ab565b820191906000526020600020905b81548152906001019060200180831161098e57829003601f168201915b5050505050908060010180546109c09061165f565b80601f01602080910402602001604051908101604052809291908181526020018280546109ec9061165f565b8015610a395780601f10610a0e57610100808354040283529160200191610a39565b820191906000526020600020905b815481529060010190602001808311610a1c57829003601f168201915b5050505050908060020160009054906101000a900473ffffffffffffffffffffffffffffffffffffffff16908060030154908060040154908060050154905086565b60016020528160005260406000208181548110610a9757600080fd5b90600052602060002001600091509150505481565b600460009054906101000a900473ffffffffffffffffffffffffffffffffffffffff1681565b60035481565b60025481565b6000806000838152602001908152602001600020905080600301543414610b3a576040517f08c379a0000000000000000000000000000000000000000000000000000000008152600401610b31906116dc565b60405180910390fd5b8060020160009054906101000a900473ffffffffffffffffffffffffffffffffffffffff1673ffffffffffffffffffffffffffffffffffffffff166108fc349081150290604051600060405180830381858888f19350505050158015610ba4573d6000803e3d6000fd5b50600160003373ffffffffffffffffffffffffffffffffffffffff1673ffffffffffffffffffffffffffffffffffffffff1681526020019081526020016000208290806001815401808255809150506001900390600052602060002001600090919091909150557fc8581808129c51c0416692a5ea1b58e080ae8f21e384eefe2f2dc85d231d12ba8233604051610c3c9291906116fc565b60405180910390a15050565b828054610c549061165f565b90600052602060002090601f016020900481019282610c765760008555610cbd565b82601f10610c8f57805160ff1916838001178555610cbd565b82800160010185558215610cbd579182015b82811115610cbc578251825591602001919060010190610ca1565b5b509050610cca9190610cce565b5090565b5b80821115610ce7576000816000905550600101610ccf565b5090565b6000604051905090565b600080fd5b600080fd5b600080fd5b600080fd5b6000601f19601f8301169050919050565b7f4e487b7100000000000000000000000000000000000000000000000000000000600052604160045260246000fd5b610d5282610d09565b810181811067ffffffffffffffff82111715610d7157610d70610d1a565b5b80604052505050565b6000610d84610ceb565b9050610d908282610d49565b919050565b600067ffffffffffffffff821115610db057610daf610d1a565b5b610db982610d09565b9050602081019050919050565b82818337600083830152505050565b6000610de8610de384610d95565b610d7a565b905082815260208101848484011115610e0457610e03610d04565b5b610e0f848285610dc6565b509392505050565b600082601f830112610e2c57610e2b610cff565b5b8135610e3c848260208601610dd5565b91505092915050565b6000819050919050565b610e5881610e45565b8114610e6357600080fd5b50565b600081359050610e7581610e4f565b92915050565b600080600060608486031215610e9457610e93610cf5565b5b600084013567ffffffffffffffff811115610eb257610eb1610cfa565b5b610ebe86828701610e17565b935050602084013567ffffffffffffffff811115610edf57610ede610cfa565b5b610eeb86828701610e17565b9250506040610efc86828701610e66565b9150509250925092565b600060ff82169050919050565b610f1c81610f06565b8114610f2757600080fd5b50565b600081359050610f3981610f13565b92915050565b60008060408385031215610f5657610f55610cf5565b5b6000610f6485828601610e66565b9250506020610f7585828601610f2a565b9150509250929050565b600060208284031215610f9557610f94610cf5565b5b6000610fa384828501610e66565b91505092915050565b600081519050919050565b600082825260208201905092915050565b60005b83811015610fe6578082015181840152602081019050610fcb565b83811115610ff5576000848401525b50505050565b600061100682610fac565b6110108185610fb7565b9350611020818560208601610fc8565b61102981610d09565b840191505092915050565b600073ffffffffffffffffffffffffffffffffffffffff82169050919050565b600061105f82611034565b9050919050565b61106f81611054565b82525050565b61107e81610e45565b82525050565b600060c082019050818103600083015261109e8189610ffb565b905081810360208301526110b28188610ffb565b90506110c16040830187611066565b6110ce6060830186611075565b6110db6080830185611075565b6110e860a0830184611075565b979650505050505050565b60006110fe82611034565b9050919050565b61110e816110f3565b82525050565b600060c082019050818103600083015261112e8189610ffb565b905081810360208301526111428188610ffb565b90506111516040830187611105565b61115e6060830186611075565b61116b6080830185611075565b61117860a0830184611075565b979650505050505050565b61118c81611054565b811461119757600080fd5b50565b6000813590506111a981611183565b92915050565b600080604083850312156111c6576111c5610cf5565b5b60006111d48582860161119a565b92505060206111e585828601610e66565b9150509250929050565b60006020820190506112046000830184611075565b92915050565b600060208201905061121f6000830184611066565b92915050565b7f5072696365206d7573742062652067726561746572207468616e207a65726f00600082015250565b600061125b601f83610fb7565b915061126682611225565b602082019050919050565b6000602082019050818103600083015261128a8161124e565b9050919050565b600060a0820190506112a66000830188611075565b81810360208301526112b88187610ffb565b905081810360408301526112cc8186610ffb565b90506112db6060830185611075565b6112e86080830184611066565b9695505050505050565b7f4e487b7100000000000000000000000000000000000000000000000000000000600052601160045260246000fd5b600061132c82610e45565b91507fffffffffffffffffffffffffffffffffffffffffffffffffffffffffffffffff820361135e5761135d6112f2565b5b600182019050919050565b7f526174696e672073686f756c64206265206265747765656e203120616e642035600082015250565b600061139f602083610fb7565b91506113aa82611369565b602082019050919050565b600060208201905081810360008301526113ce81611392565b9050919050565b7f4e487b7100000000000000000000000000000000000000000000000000000000600052603260045260246000fd5b7f596f75206d75737420707572636861736520746865206d6f64656c20746f207260008201527f6174652069740000000000000000000000000000000000000000000000000000602082015250565b6000611460602683610fb7565b915061146b82611404565b604082019050919050565b6000602082019050818103600083015261148f81611453565b9050919050565b60006114a182610e45565b91506114ac83610e45565b9250827fffffffffffffffffffffffffffffffffffffffffffffffffffffffffffffffff038211156114e1576114e06112f2565b5b828201905092915050565b6114f581610f06565b82525050565b60006060820190506115106000830186611075565b61151d60208301856114ec565b61152a6040830184611066565b949350505050565b7f4f6e6c792074686520636f6e7472616374206f776e65722063616e207769746860008201527f647261772066756e647300000000000000000000000000000000000000000000602082015250565b600061158e602a83610fb7565b915061159982611532565b604082019050919050565b600060208201905081810360008301526115bd81611581565b9050919050565b7f4e6f2066756e647320617661696c61626c650000000000000000000000000000600082015250565b60006115fa601283610fb7565b9150611605826115c4565b602082019050919050565b60006020820190508181036000830152611629816115ed565b9050919050565b7f4e487b7100000000000000000000000000000000000000000000000000000000600052602260045260246000fd5b6000600282049050600182168061167757607f821691505b60208210810361168a57611689611630565b5b50919050565b7f496e636f727265637420457468657220616d6f756e742073656e740000000000600082015250565b60006116c6601b83610fb7565b91506116d182611690565b602082019050919050565b600060208201905081810360008301526116f5816116b9565b9050919050565b60006040820190506117116000830185611075565b61171e6020830184611066565b939250505056fea2646970667358221220197ccd33eb35abdf8cc0b9628cae9aab22fcbf30b1fe32a5c9ab10fe605bd27464736f6c634300080d0033",
  "immutableReferences": {},
  "source": "// SPDX-License-Identifier: MIT\npragma solidity ^0.8.13;\n\ncontract AIModelMarketplace {\n    \n    struct AIModel {\n        string name;\n        string description;\n        address payable creator;\n        uint256 price; // Price in wei (1 ether = 10^18 wei)\n        uint256 ratingSum;\n        uint256 ratingCount;\n    }\n\n    mapping(uint256 => AIModel) public models;\n    mapping(address => uint256[]) public purchasedModels;\n    uint256 public modelCount = 0;\n    uint256 public totalFunds;\n    address public owner;  \n    \n    constructor() {\n        owner = msg.sender;  \n    }\n\n    // Event emitted when a new model is listed\n    event ModelListed(uint256 modelId, string name, string description, uint256 price, address creator);\n\n    // Event emitted when a model is purchased\n    event ModelPurchased(uint256 modelId, address buyer);\n\n    // Event emitted when a model is rated\n    event ModelRated(uint256 modelId, uint8 rating, address rater);\n\n    // Allows users to list a new model on the marketplace\n    function listModel(string memory name, string memory description, uint256 price) public {\n        require(price > 0, \"Price must be greater than zero\");\n\n        models[modelCount] = AIModel({\n            name: name,\n            description: description,\n            creator: payable(msg.sender),\n            price: price,\n            ratingSum: 0,\n            ratingCount: 0\n        });\n\n        emit ModelListed(modelCount, name, description, price, msg.sender);\n        modelCount++;\n    }\n\n    // Allows users to purchase a model by ID using Ether\n    function purchaseModel(uint256 modelId) public payable {\n        AIModel storage model = models[modelId];\n        require(msg.value == model.price, \"Incorrect Ether amount sent\");\n\n        // Transfer payment (Ether) to the model creator\n        model.creator.transfer(msg.value);\n        \n        // Store the purchase information\n        purchasedModels[msg.sender].push(modelId);\n\n        emit ModelPurchased(modelId, msg.sender);\n    }\n\n    // Allows users to rate a purchased model\n    function rateModel(uint256 modelId, uint8 rating) public {\n        require(rating >= 1 && rating <= 5, \"Rating should be between 1 and 5\");\n        \n        bool hasPurchased = false;\n        for (uint256 i = 0; i < purchasedModels[msg.sender].length; i++) {\n            if (purchasedModels[msg.sender][i] == modelId) {\n                hasPurchased = true;\n                break;\n            }\n        }\n        require(hasPurchased, \"You must purchase the model to rate it\");\n\n        AIModel storage model = models[modelId];\n        model.ratingSum += rating;\n        model.ratingCount++;\n\n        emit ModelRated(modelId, rating, msg.sender);\n    }\n\n    // Allows the contract owner to withdraw accumulated funds from the contract\n    function withdrawFunds() public {\n        require(msg.sender == owner, \"Only the contract owner can withdraw funds\"); \n        uint256 amount = address(this).balance;\n        require(amount > 0, \"No funds available\"); \n\n        payable(msg.sender).transfer(amount);  \n    }\n\n    // Retrieves the details of a specific model\n    function getModelDetails(uint256 modelId) public view returns (string memory, string memory, address, uint256, uint256, uint256) {\n        AIModel memory model = models[modelId];\n        return (model.name, model.description, model.creator, model.price, model.ratingSum, model.ratingCount);\n    }\n\n    // Fallback function to handle any ether sent to the contract without function call\n    receive() external payable {}\n}\n",
  "sourcePath": "/Users/bauyrzhanzhonkebayev/AITU/Blockchain/coin/contracts/AIModelMarketplace.sol",
  "compiler": {
    "name": "solc",
    "version": "0.8.13+commit.abaa5c0e.Emscripten.clang"
  },
  "schemaVersion": "3.4.16",
  "updatedAt": "2024-10-02T09:38:51.581Z",
  "networkType": "ethereum",
  "devdoc": {
    "kind": "dev",
    "methods": {},
    "version": 1
  },
  "userdoc": {
    "kind": "user",
    "methods": {},
    "version": 1
  }
}